:10065B003F065B4F666D7D077F6F777C395E7971E7
:08066B0000010203040506076B
:1005280005220000000000051D0000000000051164
:100538000000000000052A00000000000319000068
:1005480000011600012902011701011C0001280001
:060558000127000108006C
:1004620012069CC290C291C292C293E51790065B9B
:1004720093F50FE528B4011BC2A07FB87E0B1206CC
:1004820073D2A0C2A17FE87E03120673D2A1E4F563
:1004920028F527AF1612000E8F161205D9AF1612C5
:0404A20004E980BC2D
:0B068700EF1FAC0670011E4C70F62245
:1002CA00E4F52F75180F75900FE590640F60777F2E
:1002DA00E87E03120687E590640F606A75900FAF97
:1002EA0090EF24F5601024FE601114601324077047
:1002FA0012E4F518800D751801800875180280033C
:10030A007518037590F0AF90EF2450601124E060E7
:10031A001124F0601124707013851818800E74046B
:10032A00800674088002740C2518F518C3E52F643A
:10033A008094B25011E59064F0600B7FE87E03125E
:06034A000687052F80E686
:01035000228A
:10035100E518B40D00507990035FF8282873020363
:100361008602038D02039402039B0203A20203A9E6
:100371000203B00203B70203BE0203C20203C602B4
:1003810003CA0203CE751D0175110122751E017587
:10039100120122751E01752B0122751F01751301B2
:1003A10022751F01752C012275200175140122751A
:1003B1002001752D0122752101752E012275220161
:1003C100227523012275240122752501227526013A
:0103D1002209
:10000E008F30E53060030200BB12058CEF603612B4
:10001E0005B3EF2401FFE433FED3EF95177480F898
:10002E006E9840030201721205B3EF2401FFE43310
:10003E00FE7C00EFB5170BECB50607E4F530742126
:10004E00805A0201857B007A00791D120591EF60BE
:10005E00597B007A00791D1205B9EF2401FFE433B4
:10006E00FED3EF95177480F86E9840030201727BF1
:10007E00007A00791D1205B9EF2401FFE433FE7CEE
:10008E0000EFB51722ECB5061EE4F53074102517F7
:10009E00F8E4F674292517F8E4F6741C2517F8E42D
:1000AE00F675280102018D02018502018AE5306490
:1000BE0002706512058CEF60207B007A00792212A7
:1000CE0005FDEF2401FFE433FEC3EF95177480F8AE
:1000DE006E985002802A0201727B007A00792A12F1
:1000EE000591EF60237B007A00792A1205FDEF243B
:1000FE0001FFE433FEC3EF95177480F86E98500637
:10010E0085303002018D805C7B007A0079111205FA
:10011E0091EF6002804E8064E530640170611205DB
:10012E008CEF60191205B3EF2401FFE433FED3EF19
:10013E0095177480F86E9840028029803A7B007A79
:10014E0000791D120591EF60227B007A00791D1255
:10015E0005B9EF2401FFE433FED3EF95177480F851
:10016E006E9840057530018016800C7B007A007900
:10017E002A120591EF60057530028003E4F530AF69
:02018E0030221D
:05058C00FB7A0079225A
:060591008B318A32893330
:10059700E4FFAB31AA32A9338F8275830012055F5E
:0B05A70060037F01220FBF05E97F0009
:0105B2002226
:0605B3007B007A007922B2
:0605B9008B378A388939F6
:1005BF00E4FFFEAB37AA38A9398E82758300120586
:0905CF005F6002AF060EBE05EAF2
:0105D8002200
:0605FD008B378A388939B2
:10060300E4FFAB37AA38A9398F8275830012055FDF
:090613006001220FBF05EB7F001E
:01061C0022BB
:070692007FF51206997FF5C8
:03069900DFFE225F
:10061D00C293AF2912062EC290D291C292C293AF4D
:01062D0029A3
:0E062E00AE07AF061EEF600512069280F522A1
:10067300AD07AC06ED1DAE0470011C4E60051206FD
:040683009280F1224E
:10041D007535007536017D007C02C290C291C29285
:10042D00C293ED1DAE0470011C4E6021D290C2919D
:10043D00C29212061DC290C291D29212062AC29089
:10044D00C291C292D293AF2912062E80D5AF171248
:04045D0001900517EE
:010461002278
:1004A600740125E07D00FCC290C291C292C293ED18
:1004B6001DAE0470011C4E601FC290C291C292D242
:1004C60093AF2912062EC290C291D29212061DD265
:1004D60090C29112062880D7E51724FEFF120190DC
:0204E6001517E8
:0104E80022F1
:0204E9008F3052
:1004EB00753100753201E53275340025E0F533E5E1
:1004FB00307008C290C291C292C293E530B401032E
:10050B0012041DC290C291C292C293E5327534009F
:0C051B0025E0F533E530B402031204A61D
:0105270022B1
:0A069C00438901D2AFD2A9D28C220B
:03000B000203D21B
:1003D200C0E0C0F0C083C082C0D075D000C000C0F1
:1003E20001C002C003C004C005C006C0071202CA91
:1003F200120351758CF8758A307D08E4FF12063CB1
:10040200D007D006D005D004D003D002D001D0004E
:0B041200D0D0D082D083D0F0D0E032F8
:10063C00E4F580E5082F90066B93F5B07409250856
:0E064C00F8E6F5800508E508B50503E4F508B5
:01065A00227D
:10019000AD07E4F528F52774112DF8E6FF6020740B
:1001A0002A2DF8E66019E516B4010C74112DF8E457
:1001B000F6752801752701E5166402706A805CEF08
:1001C0006028E516B4010C74112DF8E4F6752801C9
:1001D000752701E5166402704EFB7A00792212053C
:1001E000FDEFC39D404174118033742A2DF8E66001
:1001F00036E516B40208E4F6752801752701E51600
:1002000064017023FB1205B5EFD39D501A7B007A71
:1002100000792A1205B9EFD39D500C742A2DF8E409
:10022000F675280175270174222DF8E6B4010675CC
:0E0230002701752801E4F6741D2DF8E4F6226E
:1005D900E5277009E516B40104C2A6D2A7E527707C
:1005E90009E516B40204D2A6C2A7E527B40104D2CC
:0405F900A6D2A722BD
:0300000002023EBB
:0C023E00787FE4F6D8FD75813902028556
:10055F00BB010CE58229F582E5833AF583E0225051
:10056F0006E92582F8E622BBFE06E92582F8E2229B
:0D057F00E58229F582E5833AF583E49322B5
:10024A00020462E493A3F8E493A34003F68001F264
:10025A0008DFF48029E493A3F85407240CC8C333B5
:10026A00C4540F4420C8834004F456800146F6DF84
:10027A00E4800B0102040810204080900528E47EE7
:10028A00019360BCA3FF543F30E509541FFEE49379
:10029A00A360010ECF54C025E060A840B8E493A340
:1002AA00FAE493A3F8E493A3C8C582C8CAC583CA6B
:1002BA00F0A3C8C582C8CAC583CADFE9DEE780BE23
:01055E00009C
:00000001FF
